:020000040800F2
:10000000E8990020450100080D310008052C000882
:10001000FD2F0008D51A0008FD510008000000005F
:10002000000000000000000000000000253800086B
:10003000452800080000000075330008A13F0008B3
:100040005F0100085F0100085F0100085F01000810
:100050005F0100085F0100085F0100085F01000800
:100060005F0100085F0100085F0100085F010008F0
:100070005F0100085F010008C51F00085F0100085C
:10008000292000085F0100085F0100085F010008E7
:10009000694C00085F0100085F0100085F0100086B
:1000A0005F0100085F0100085F0100085F010008B0
:1000B0005F0100085F0100085F0100085F010008A0
:1000C0005F0100085F0100085F0100085F01000890
:1000D0005F01000831450008BD4700085F010008C6
:1000E0005F0100085F0100085F0100085F01000870
:1000F0005F0100085F0100085F0100085F01000860
:100100005F0100085F0100085F0100085F0100084F
:10011000914300085F0100085F0100085F010008CB
:100120005F010008F92000085F0100085F01000876
:10013000DFF80CD000F0BCF800480047D55A0008A2
:10014000E89900200648804706480047FEE7FEE79A
:10015000FEE7FEE7FEE7FEE7FEE7FEE7FEE7FEE777
:10016000B13F00083101000840EA01039B0703D0BA
:1001700009E008C9121F08C0042AFAD203E011F8E6
:10018000013B00F8013B521EF9D27047D2B201E0A8
:1001900000F8012B491EFBD270470022F6E710B58C
:1001A00013460A4604461946FFF7F0FF204610BDE5
:1001B000421E12F8013F002BFBD111F8013B02F85F
:1001C000013B002BF9D1704730B505462A460B4656
:1001D00012F8010B13F8014B08B1A042F8D01CB182
:1001E000002802D06D1CF1E7284630BD10B504464A
:1001F00004E00B7800F8013B03B1491C521EF8D211
:10020000204610BD421C10F8011B0029FBD1801AAA
:10021000704710B5002200E0521C835C8C5CA34246
:1002200001D1002BF8D1D8B2E1B2401A10BD30B5DF
:1002300005460020034600E05B1C934205D2EC5CBF
:10024000C85C201A01D1002CF6D130BD2DE9F05F39
:100250000546002092469B46884606468146402435
:100260001BE0284641464746224600F042F85346E6
:100270005A46C01A914110D311461846224600F042
:1002800029F82D1A67EB01084F462246012000216C
:1002900000F020F817EB00094E41201EA4F10104E4
:1002A000DFDC484631462A464346BDE8F09F000061
:1002B000064C074D06E0E06840F0010394E80700B3
:1002C00098471034AC42F6D3FFF736FF706500084C
:1002D00090650008202A04DB203A00FA02F1002091
:1002E00070479140C2F1200320FA03F31943904074
:1002F0007047202A04DB203A21FA02F000217047DF
:1003000021FA02F3D040C2F120029140084319467D
:10031000704770B501EB020410F8015B15F007039C
:1003200001D110F8013B2A1106D110F8012B03E08E
:1003300010F8016B01F8016B5B1EF9D12B0705D496
:100340000023521E0FD401F8013BFAE710F8013BDD
:1003500002F10202A1EB030303E013F8015B01F8D1
:10036000015B521EF9D5A142D6D3002070BD00001A
:100370002DE9F0410C4C0D4D00260D4F0DE0C0EB6A
:10038000001000EB800005EBC00004F0D9FD2068F0
:10039000401C2060142800DB2660396820688142F8
:1003A000EDD1BDE8F08100007C050020A14B0020CC
:1003B000880500202DE9F0470024A0461D27264689
:1003C00027A005F011F8DFF8AC9021462AA005F02F
:1003D0000BF859F8240000F05DFD012802D06220DE
:1003E000BDE8F087032C4FF000030ED04FF4FA72F3
:1003F000204806218C3004F08DFF054603F042F8BA
:10040000632D05D0012D06D006E04FF4FA52EFE738
:100410004FF001080AE0761C164821468C3000EBAC
:10042000850050F8042C16A004F0DEFF19A004F09B
:10043000DBFF641CBC42C8DB17A004F0D5FF3246CA
:1004400039461AA004F0D0FFB8F1010F03D0B7422B
:1004500003D10120C4E76320C2E70020C0E7000009
:10046000415420696E6974202E2E2E2E2E2E0D0AD8
:1004700000000000180000205B25645D20000000E3
:100480005B25645D20726573756C743A2025730D6D
:100490000A0000000D0A0000415420696E697420B2
:1004A00066696E69736865640D0A000025642063DF
:1004B0006F6D6D656E64732069732073656E742C47
:1004C000616E6420676574202564204F4B730D0AAC
:1004D0000D0A0000F0B503462F480E4685B0D0E95E
:1004E0000112C0680091CDE90120002203A918463D
:1004F00005F078FB00208DF8080003A96846FFF797
:1005000057FE694625A004F06FFF684600F0C2FC64
:10051000012826D14FF4FA7700233A4606212248D3
:1005200004F0F8FE044602F0ADFF1F4D1835012C13
:100530000BD0632C06D005EB840050F8041C1BA0E4
:1005400004F052FF204605B0F0BD69461DA004F03E
:100550004BFF1EA004F048FF304600F09BFC012832
:1005600001D06220EFE7104800233A4606211830F8
:1005700004F0D0FE044602F085FF012C07D0632C66
:10058000E0D005EB840050F8041C16A0D8E71CA0AE
:1005900004F02AFFD6E70000545D00082573202EE2
:1005A0002E2E2E2E2E0D0A008C0000205B66616917
:1005B0006C5D2041542B434D47533D32303A20254A
:1005C000730D0A002573204F4B0D0A006D65737380
:1005D0006167652073656E64202E2E2E2E2E2E0DE3
:1005E0000A0000005B6661696C5D206D6573736174
:1005F00067652073656E643A2025730D0A0000005C
:100600006D6573736167652073656E64204F4B0D74
:100610000A0000002DE9F35F002405464FF00509AC
:100620004FF0010B4FF0080ADFF8B88126466E4FF5
:10063000D1E0B8780B280CD2DFE800F0060C1214D9
:100640001E242932748DA000285DF92801D187F875
:1006500002B0BFE0285DF928FBD03E710220A9E07E
:100660000320A7E0285D4108F980C00702D087F881
:100670000290AFE004209DE0285DF98841EAC010B7
:10068000F880F4E7285D0D284BD1062092E0285D24
:100690000A2846D10720B8703E61FE707E7199E04D
:1006A0003979B8682A5D0844C0EB001000EB80017E
:1006B00008EBC100F9784254491CF9703969491CAA
:1006C0003961295D0D2906D105F0F0F908B1787975
:1006D00028B187F802A0F878022803D019E087F83B
:1006E00005B0F8E73879B9680144C1EB011101EBB5
:1006F000810118F831303E2B0BD108EBC1014A784B
:10070000202A06D18E70401C38717E71FE7009203F
:10071000B8703869F988801C81425BDA33A004F034
:1007200063FE56E0285D0A2853D13879B968014440
:10073000C1EB011101EB810208EBC201FA7811440F
:1007400001F8016C3969491C401C39613871FE702F
:100750007E7109202EE03A79B868295D1044C0EB1B
:10076000001000EB8002F87808EBC2021154401C24
:10077000F8703869401C38610A201BE0285D0A289F
:1007800002D0F92818D024E03979B8680844C0EBC1
:10079000001000EB800108EBC100F978014411F86A
:1007A000011C0D2915D1FE7000F8016C3869401C40
:1007B00038610720B8700DE03869F988401C814223
:1007C00007D13979B8680844B860142801DB1438B7
:1007D000B860BE70641C01988442FFF62AAFBDE881
:1007E000FC9F0000A14B0020800500205B65727219
:1007F0006F725D206D7578206C656E74680D0A00EF
:1008000010B513A004F0F0FD17A000F043FB012881
:1008100001D0622010BD00234FF4FA520621154882
:1008200004F078FD044602F02DFE012C0BD0632C61
:1008300007D0104800EB840050F8041C0EA004F010
:10084000D3FD204610BD13A004F0CEFDF9E7000053
:1008500072657363756520636C6F73655D202E2E02
:100860002E2E2E2E0D0A000041542B4346554E3D90
:1008700037000000A40000205B6661696C5D207297
:10088000657363756520636C6F73653A2025730D1E
:100890000A00000072657363756520636C6F736591
:1008A000204F4B0D0A00000010B513A004F09CFD72
:1008B00017A000F0EFFA012801D0622010BD00233C
:1008C0004FF4FA520621154804F024FD044602F0C4
:1008D000D9FD012C0BD0632C07D0104800EB84000D
:1008E00050F8041C0EA004F07FFD204610BD13A09C
:1008F00004F07AFDF9E70000726573637565206F97
:1009000070656E202E2E2E2E2E2E0D0A0000000059
:1009100041542B4346554E3D38000000A4000020B2
:100920005B6661696C5D20726573637565206F70CD
:10093000656E3A2025730D0A00000000726573632E
:100940007565206F70656E204F4B0D0A000000002A
:1009500070B5054640782978AA7800EB0120E9783F
:10096000002401EB022180B289B200F0E3F80128F3
:1009700000D00224287900F03FF9012801D044F08A
:100980000404A879697900EB012080B200F07CF8BA
:10099000012801D044F00804287AE97900EB01200D
:1009A00080B200F07FF9012801D044F01004687A89
:1009B00000F014F8012801D044F02004287AE979E5
:1009C00000EB012000B200F0C7F9012801D044F08B
:1009D000400404B90124204670BD000010B58AB05F
:1009E0000446202218496846FFF7BEFB002208A9EA
:1009F000204605F0F7F808A96846FFF7D9FB6846D6
:100A000000F048FA012802D062200AB010BD00238D
:100A10004FF4FA7207210D4804F07CFC044602F002
:100A200031FD012C0BD0632C07D0084800EB84006B
:100A300050F8041C06A004F0D7FC2046E5E70CA003
:100A400004F0D2FCF9E70000185D0008C0010020A6
:100A50005B6661696C5D20726573637565207365A3
:100A6000742061726D793A2025730D0A0000000030
:100A7000726573637565207365742061726D79208A
:100A80004F4B0D0A0000000010B58AB0044620222A
:100A900018496846FFF768FB002208A920B205F054
:100AA000A1F808A96846FFF783FB684600F0F2F951
:100AB000012802D062200AB010BD00234FF4FA7260
:100AC00007210D4804F026FC044602F0DBFC012C53
:100AD0000BD0632C07D0084800EB840050F8041CAE
:100AE00006A004F081FC2046E5E70CA004F07CFCA5
:100AF000F9E70000D85C0008880100205B666169A6
:100B00006C5D207265736375652073657420636F17
:100B1000756E743A2025730D0A00000072657363C8
:100B200075652073657420636F756E74204F4B0D6F
:100B30000A00000030B58BB00C46054620221F4944
:100B40006846FFF711FB002208A928B205F04AF811
:100B500008A96846FFF72CFB19A16846FFF728FB98
:100B6000002208A920B205F03DF808A96846FFF761
:100B70001FFB684600F08EF9012802D062200BB0FE
:100B800030BD00234FF4FA7207210E4804F0C2FB77
:100B9000044602F077FC012C0BD0632C07D00948E7
:100BA00000EB840050F8041C07A004F01DFC204654
:100BB000E5E70CA004F018FCF9E70000985C0008D9
:100BC0002C000000500100205B6661696C5D2072A2
:100BD000657363756520736574206672653A2025B8
:100BE000730D0A0072657363756520736574206602
:100BF0007265204F4B0D0A0010B58AB004462022C2
:100C000018496846FFF7B0FA002208A9204604F008
:100C1000E9FF08A96846FFF7CBFA684600F03AF901
:100C2000012802D062200AB010BD00234FF4FA72EE
:100C300007210D4804F06EFB044602F023FC012C52
:100C40000BD0632C07D0084800EB840050F8041C3C
:100C500006A004F0C9FB2046E5E70CA004F0C4FBA5
:100C6000F9E70000B85C00086C0100205B66616970
:100C70006C5D2072657363756520736574206761B0
:100C8000696E3A2025730D0A0000000072657363D7
:100C9000756520736574206761696E204F4B0D0A7E
:100CA0000000000010B58AB00446202218496846AA
:100CB000FFF75AFA002208A920B204F093FF08A90E
:100CC0006846FFF775FA684600F0E4F8012802D09C
:100CD00062200AB010BD00234FF4FA7207210D48BC
:100CE00004F018FB044602F0CDFB012C0BD0632C62
:100CF00007D0084800EB840050F8041C06A004F05C
:100D000073FB2046E5E70DA004F06EFBF9E7000059
:100D1000F85C0008A40100205B6661696C5D2072CC
:100D200065736375652073657420696E746572768A
:100D3000616C3A2025730D0A000000007265736330
:100D400075652073657420696E74657276616C20B8
:100D50004F4B0D0A0000000010B58AB00446202257
:100D600018496846FFF700FA012208A9204604F056
:100D700039FF08A96846FFF71BFA684600F08AF8B1
:100D8000012802D062200AB010BD00234FF4FA728D
:100D900007210D4804F0BEFA044602F073FB012C53
:100DA0000BD0632C07D0084800EB840050F8041CDB
:100DB00006A004F019FB2046E5E70CA004F014FBA4
:100DC000F9E70000385D0008DC0100205B6661691E
:100DD0006C5D2072657363756520736574206F6642
:100DE000667365743A2025730D0A0000726573639B
:100DF000756520736574206F6666736574204F4B4C
:100E00000D0A000010B511A000F044F8012801D02F
:100E1000622010BD00234FF4FA7208210F4804F03D
:100E200079FA044602F02EFB012C0BD0632C07D07C
:100E30000A4800EB840050F8041C09A004F0D4FA1E
:100E4000204610BD054801680CA0F7E741542B531C
:100E500053454E445354415455530000BC000020A8
:100E60005B6661696C5D207265736375652073658F
:100E70006E643A2025730D0A0000000072657363EA
:100E800075652073656E645D20204F4B3A20257395
:100E90000D0A000010B50446FFF7B4F981B22046F0
:100EA000BDE8104000F056B803F078BB2DE9F35FC1
:100EB0000C46009804F06AFD0834F92706464FF006
:100EC00001084FF0EF094FF00D0A4FF00A0B7F2C8D
:100ED0000FDC204602F004F9050038D02F7008EB33
:100EE00086006870F52085F8029000EB4400E870F9
:100EF00010E0601C02F0F4F8050028D02F7008EB19
:100F000086006870E01F410085F80290E970C0F328
:100F1000C7102871691C032002F0E4FC0646A4F106
:100F20000802281D009902F0E5F82819A1B200F87E
:100F300004AD80F801B08670C7702846FFF7B4FF93
:100F40000446284602F068F82046BDE8FC9F62206F
:100F5000FBE7000070B5054616480C46007888B1DE
:100F600015A004F041FA21462846FFF79FFF01280B
:100F700017D02146284601F073FC12A004F034FA81
:100F8000002070BD12A004F02FFA2146284600F080
:100F90002FF8012805D02146284601F061FC0FA05A
:100FA000ECE72146284601F05BFC0FA004F01CFA98
:100FB000012070BD000000204D75782073656E64BF
:100FC0003A000000205B6661696C5D20210D0A001B
:100FD00041542073656E643A00000000205B666136
:100FE000696C5D0D0A000000204F4B0D0A000000E7
:100FF00003F00ABB30B587B004461C222749684677
:10100000FFF7B2F82046FFF7FDF8142806D3214673
:1010100023A004F0E9F9142007B030BD2046FFF703
:10102000F1F8421C21462448FFF79EF8224DE97D45
:1010300021B122A004F0D8F90020EDE7214668464E
:10104000FFF7B6F827A16846FFF7B2F826A004F02C
:10105000CBF96846FFF71EFF012801D06220DBE7CD
:1010600000234FF4FA720821244804F053F904468F
:1010700002F008FA012C0BD0632C07D01F4800EBBC
:10108000840050F8041C1EA004F0AEF92046C3E70B
:101090000120E87520A004F0A7F9F7E7545C0008E8
:1010A0006E756D62657220697320746F6F206C6F4E
:1010B0006E673A25730D0A00C00A00205B666169FD
:1010C0006C5D20766F6963652063616C6C20756E62
:1010D0006B6E6F772073746174653A2025640D0A16
:1010E000000000003B000000766F696365206361CB
:1010F0006C6C202E2E2E2E2E2E0D0A00DC000020D1
:101100005B6661696C5D20766F6963652063616C05
:101110006C3A2025730D0A00766F69636520636160
:101120006C6C204F4B0D0A0010B51748C17D00298B
:1011300025D016A004F058F91AA0FFF7ABFE01283D
:1011400001D0622010BD00234FF4FA720621174827
:1011500004F0E0F8044602F095F9012C0BD0632C62
:1011600007D0124800EB840050F8041C10A004F0D3
:101170003BF9204610BD15A004F036F9F9E718A098
:1011800004F032F9002010BDC00A0020766F6963B8
:10119000652068756E6775705D202E2E2E2E2E2EA2
:1011A0000D0A000041542B4348555000FC0000201C
:1011B0005B6661696C5D20766F6963652068756E3A
:1011C0006775703A2025730D0A000000766F696319
:1011D000652068756E677570204F4B0D0A00000022
:1011E0005B6661696C5D20766F6963652068756E0A
:1011F00067757020756E6B6E6F77207374617465A0
:101200003A2025640D0A000070B5184DE97D0C29BF
:1012100004D017A004F0E8F8002070BD1EA004F070
:10122000E3F823A0FFF736FE012801D0622070BD4D
:1012300000234FF4FA7202211E4804F06BF80446B2
:1012400002F020F9012C0BD0632C07D0194800EBD9
:10125000840050F8041C18A004F0C6F8204670BDA5
:101260000D20E8751BA004F0BFF8F7E7C00A0020C6
:101270005B6661696C5D20766F696365207265638A
:101280006569766520756E6B6E6F77207374617417
:10129000653A2025640D0A00766F696365207265E2
:1012A00063656976655D202E2E2E2E2E2E0D0A008A
:1012B00041544100100000205B6661696C5D20763E
:1012C0006F69636520726563656976653A20257389
:1012D0000D0A0000766F6963652072656365697643
:1012E00065204F4B0D0A000070B5114D114C286858
:1012F000C0EB001000EB800004EBC000FEF782FFA3
:101300000D4E421C3168C1EB0113491C3160296844
:1013100003EB8300C1EB011101EB810104EBC1017F
:10132000BDE87040054B03EBC000FEF71DBF000099
:101330007C050020A14B0020A4050020767C002025
:1013400010B5044603F0AAFA2146BDE81040014852
:1013500004F04AB8285E000870B505461CA004F0E9
:1013600043F800F083FB0446012804D01DA004F0DC
:101370003BF8204670BD072D23D2DFE805F00407B7
:101380000A0D1013160000F09FF910E000F0DEF9CE
:101390000DE000F04FF80AE000F01AFA07E000F064
:1013A00019F904E000F0CAF801E000F085F81349EB
:1013B0000020134A8860294612A004F015F8012085
:1013C00070BD294615A004F00FF8072070BD00007D
:1013D00042445320726563656976652E2E2E0D0A90
:1013E000000000005B74696D656F75745D20424498
:1013F0005320726563656976650D0A00100200204E
:10140000301A002042445320696E666F2025642DF7
:101410002D2D2D2D2025730D0A000000756E6B6E8D
:101420006F776E204244532074797065203A2025EE
:10143000640D0A002DE9F0411D4900204FF420728F
:101440000B5C242B03D10B181B794D2B2ED0401C89
:101450009042F5DBE778267965792146022001F094
:101460002DFB205C522F1FD14D2E1DD1432D1BD1A2
:10147000412819D12146092001F020FB07193946DE
:10148000012001F01BFB0B4C401EC5B2084EA068AA
:101490001E3E30442A463946FEF7A8FEA0680021C9
:1014A00028443154401CA060BDE8F0810C18D1E7FD
:1014B0004E1A0020100200202DE9F0411D490020A5
:1014C0004FF420720B5C242B03D10B181B794D2B8E
:1014D0002ED0401C9042F5DBE778267965792146CD
:1014E000022001F0EBFA205C522F1FD14D2E1DD1AE
:1014F000432D1BD1412819D12146082001F0DEFAE5
:1015000007193946012001F0D9FA0B4C401EC5B22B
:10151000084EA0681E3E30442A463946FEF766FE55
:10152000A068002128443154401CA060BDE8F0812F
:101530000C18D1E74E1A0020100200202DE9F041CE
:10154000224900204FF420720B5C242B03D10B188E
:101550001B79472B38D0401C9042F5DBE778267981
:1015600065792146012001F0A9FA205C472F29D195
:10157000472E27D1412D25D12C2823D021460920C3
:1015800001F09CFA204480460146012001F096FAC1
:101590000F4D401EC7B20D4EA8681E3E30443A465D
:1015A0004146FEF723FEA86821463844A8600A2079
:1015B00001F084FA015DA8683154401C00213154C7
:1015C000401CA860BDE8F0810C18C7E74E1A002047
:1015D000100200202DE9F047394900204FF4207215
:1015E0000B5C242B03D10B181B79472B66D0401CB6
:1015F0009042F5DBE778267965792146012001F0F4
:101600005DFA205C472F57D1472E55D1412D53D13C
:101610002C2851D02146022001F050FA2044804667
:101620000146012001F04AFA264D401EC7B2244E61
:10163000A8681E3E30443A464146FEF7D7FDA968E9
:101640004FF02E097018C27802718278C27080F84B
:101650000290C819A8602146032001F02FFA015D0D
:10166000A8683154401CA8602146042001F026FAE5
:10167000204480460146012001F020FA401EC7B2F6
:10168000A8683A4630444146FEF7B0FDA968701894
:1016900002794271C278027180F80390C819A8607B
:1016A0002146052001F00AFA015DA8683154401C6A
:1016B00000213154401CA860BDE8F0870C1899E760
:1016C0004E1A0020100200202DE9F0411D49002093
:1016D0004FF420720B5C242B03D10B181B79472B82
:1016E0002ED0401C9042F5DBE778267965792146BB
:1016F000012001F0E3F9205C472F1FD1472E1DD1B7
:10170000412D1BD12C2819D02146072001F0D6F9F4
:1017100007193946012001F0D1F90B4C401EC5B222
:10172000084EA0681E3E30442A463946FEF75EFD4C
:10173000A068002128443154401CA060BDE8F0811D
:101740000C18D1E74E1A0020100200202DE9F041BC
:101750001D4900204FF420720B5C242B03D10B1881
:101760001B794D2B2ED0401C9042F5DBE778267973
:1017700065792146022001F0A1F9205C522F1FD18A
:101780004D2E1DD1432D1BD1412819D121460720B3
:1017900001F094F907193946012001F08FF90B4C3B
:1017A000401EC5B2084EA0681E3E30442A46394647
:1017B000FEF71CFDA068002128443154401CA060A5
:1017C000BDE8F0810C18D1E74E1A0020100200206D
:1017D0002DE9F0412E4A00204FF42073115C24299A
:1017E00005D11118097947294AD04D2948D0401C04
:1017F0009842F3DBE778267965792146012001F0EC
:101800005DF9205C472F3DD0522F37D14D2E35D179
:10181000432D33D12C2831D02146012001F04EF93F
:1018200007193946012001F049F91A4D401EC6B288
:10183000174CA8681E3C204432463946FEF7D6FCB9
:10184000A8682318215C5A783039303A01EB8101BD
:1018500002EB41010831182291FBF2F702FB17114C
:101860000A2791FBF7F207FB121130322254303174
:101870005970304400212154401CA860BDE8F0811B
:101880001418B7E7472EF9D1412DC3D0F6E7000071
:101890004E1A00201002002010B5094C20780028B4
:1018A00008D000F059F8012805D006A003F09CFDEF
:1018B0000020207010BDBDE810400AA003F094BDC8
:1018C000100200205B74696D656F75745D20424481
:1018D0005320746F75636875616E204F46460D0A1C
:1018E0000000000042445320746F75636875616E98
:1018F00020646174612073656E640D0A000000004D
:1019000010B5A6B0044698220C496846FEF72CFC98
:10191000042C06D921460AA003F066FD204626B015
:1019200010BDC4EB0410694601EB4000FFF708FD51
:10193000214605A003F058FD0120F0E7905D000866
:10194000756E6B6E6F776E20424453206D6F6465C9
:101950002025640D0A0000002DE9F05F284E0025C7
:101960003168284A284F116039882849BB882C469D
:101970000B54DFF89CA0904689464FF4207B0DE085
:101980003168D8F80000091A514502D96320BDE832
:10199000F09F1021384602F0BDFF78B9202138466B
:1019A00002F0B8FF0028EBD045B93168C8F8001044
:1019B000B98809F80410641C5C45EFD30021154D6B
:1019C00009F8041001F11A0028700820A871601CA1
:1019D0006880621C0D49E81DFEF7C6FB40F28621B7
:1019E000284603F043F809490BA003F0FDFCEB780F
:1019F000AA78611C0EA003F0F7FC0120C7E70000E5
:101A0000080000200C000020005000404E1A00206A
:101A1000A08601003A08002042445320746F756389
:101A20006875616E20646174613A0D0A2573000067
:101A300042445320746F75636875616E20646174ED
:101A400061206C656E203D2025642C2064617461EA
:101A50005B325D203D2025642C20646174615B3322
:101A60005D203D2025640D0A000000002DE9F047AF
:101A7000134D2868134EDFF85080DFF85090002493
:101A800047F230574FF4207A30602868306006E023
:101A90003168401AB84202D96320BDE8F08720219E
:101AA000404602F037FF00282868F1D03060B8F8CF
:101AB000040009F80400641C5445E6DB0120ECE74F
:101AC000080000200C000020005000404E1A0020AA
:101AD00002F0E8BC01A003F087FCFEE74275734604
:101AE00061756C745F48616E646C65720D0A00000C
:101AF000C1B2000A40EA0120704700002DE9F05F02
:101B00004BF68F7A48F6BF7948F2800840F68F7519
:101B100048F60F7B29E047F6FF70106008884A4CB2
:101B200010F00F00207029D0484E06EB80000168AD
:101B30008FB2390409D501682940016044482178F1
:101B400000EB810050F8040C804738060DD5207852
:101B500006EB8000016801EA0B0101603D48217835
:101B600000EB810050F8040C8047384A443210687A
:101B7000394908800004CED4BDE8F09F334C20687A
:101B8000364EC0F301304FEA003030802068C0F399
:101B900001104FEA00107080206800EA0A0080F40B
:101BA000005040EA08002060206800EA090080F048
:101BB000200040EA080020600888C006206809D498
:101BC00000EA0B00206001F0A7F9206810F4084F2C
:101BD0000BD117E087B2380605D5206800EA0B0064
:101BE000206001F099F9380505D52068284020606B
:101BF00002F00CF806E0380404D520682840206084
:101C000001F084FB2068318800EA0A00C90401D58C
:101C100080F480503188890401D580F4005040EA76
:101C2000080020602068728800EA0900D20601D509
:101C300080F010007288920601D580F0200040EA02
:101C40000800206091E7000060050020005C004073
:101C50008C040020700400206E0400207205002017
:101C60002DE9F047224E234DF17DE87881423DD0A9
:101C7000E97021A003F0B8FB01F012FEF07D224CC8
:101C800004280AD00E2808D00021204FDFF88080D9
:101C9000DFF88090217010B112E00121F5E70021FA
:101CA000384600F085FA4FF420711B48FEF775FAAC
:101CB0000021404600F0B0FF0021484600F0ACFF94
:101CC000F07D032801D00E280BD10121384600F009
:101CD0006FFA0121404600F09FFF0121484600F0C5
:101CE0009BFF29792078814200D02871BDE8F087D8
:101CF000C00A00200000002063616C6C20737461D6
:101D000074652025640D0A00A00500201C04024013
:101D100000380040003C0040D80A0020074901EB91
:101D200080000168490407D5016848F68F721140A8
:101D30004CF280021143016070470000005C0040DB
:101D4000074901EB80000168490607D5016848F69C
:101D50008F72114048F2C0021143016070470000C9
:101D6000005C0040054901EB8000016848F68F6285
:101D7000114048F28002114301607047005C00404E
:101D8000124910B50A680628117801F07F0103D1C5
:101D9000012901D1537913B121290AD013E0907898
:101DA000222802D0212802D00DE0094904E0094987
:101DB00002E0032807D1084929B10020916150822F
:101DC0008847002010BD022010BD000064050020DF
:101DD0001D1E0008F51D0008011E0008014901F044
:101DE000D3BF0000B8040020014901F0CDBF0000BE
:101DF000B0040020014901F0C7BF0000C00400206A
:101E000008B104487047044901200968088200208D
:101E100070470000AC0400206405002000207047DB
:101E200005490968C978042901D900207047034A87
:101E300002EBC10101F0A8BF64050020F8040020F6
:101E400009B9002800D0022070470000064909683F
:101E5000097801F07F01212901D10B2801D002204E
:101E6000704700F08FB800006405002070B5384856
:101E7000002100688172C1723649C979417200201F
:101E800001F042FD4FF40071002001F003FE10212B
:101E9000002001F0D7FD2021002001F05DFD602130
:101EA000002001F0B1FD0020FFF75CFF2A4890F808
:101EB0002C10002001F060FD002001F095FD0021B4
:101EC000012001F0E7FDA021012001F09DFD30215E
:101ED000012001F071FD0021012001F06DFD0021C4
:101EE000022001F0D7FDE021022001F035FD402164
:101EF000022001F041FD4FF440542146022001F040
:101F00005BFD0021022001F09DFDE110032001F0A6
:101F1000C1FD4FF49071032001F01EFD4FF4B0712C
:101F2000032001F071FD4021032001F025FD214631
:101F3000032001F041FD2021032001F083FD074D26
:101F400001242C60002001F0E7FC2C6070BD000033
:101F500064050020495F0008C804002044050020F3
:101F60000348807A002802D00249052008607047A3
:101F70000C460020440500200149042008607047F9
:101F800044050020034804490068C0780860002028
:101F90007047000064050020AC04002070477047C3
:101FA00010B500F0E3FD054800240068847201F0DC
:101FB00011FA02F003FF0248046010BD640500201E
:101FC000440500202DE9F0414FF40058404600F050
:101FD0006DF9114E114D4FF48057012440B1384630
:101FE00000F0DAF8404600F0D7F834700C480FE003
:101FF0004FF48048404600F059F900280AD038468E
:1020000000F0CAF8404600F0C7F8022030700548DA
:1020100004702C70BDE8F081080200200902002045
:102020000B0200200A0200202DE9F0474FF40010B7
:1020300000F03CF9002853D0DFF8A8900021484672
:1020400000F0B6F84FF4801000F0A6F826484FF4E0
:10205000FA73012201782348244E6C380024244D61
:10206000244F002998460367298816D079B32C801D
:1020700087670121484600F09BF8288801282AD06C
:1020800086F8F441444641461848FEF7C3FA17481B
:102090002146BDE8F047FEF7BDBA81B12C808767C5
:1020A0000121484600F084F8288801280AD00F480A
:1020B00086F8F4414146BDE8F04703F0E5BB2A80CD
:1020C0008667EDE787F8F44141460A48F3E7FFE702
:1020D0002A808667CDE787F8F44141460548D8E76E
:1020E000BDE8F0876C00024000000020817A0020EB
:1020F00078050020AC4900202DE9F047DFF88490F6
:10210000484600F0D3F8DFF87C801F4F1F4D4FF496
:102110000066A8F11008012498B13146384600F055
:10212000BDFCC0F10100C2B23146384600F0C1FC2E
:10213000404600F031F8484600F02EF82C70144864
:102140001CE0DFF8409009F12009484600F0AEF8A5
:10215000002814D03146384600F0A0FCC0F1010040
:10216000C2B23146384600F0A4FC404600F014F8F4
:10217000484600F011F80220287006480470BDE8B7
:10218000F087000020000010000C01400C0200202D
:102190000E0200200D020020C10002D50249086095
:1021A0007047024948607047040402400000024042
:1021B0000029016802D041F0010102E04FF6FE72F1
:1021C000114001607047000001684FF6FE72114037
:1021D00001600021016041608160C1603149314A84
:1021E0000839904203D1486840F00F0006E02D4ABC
:1021F0001432904204D1486840F0F00048607047C3
:10220000284A2832904203D1486840F47060F5E7CC
:10221000244A3C32904203D1486840F47040EDE7D4
:10222000204A5032904203D1486840F47020E5E7DC
:102230001C4A6432904203D1486840F47000DDE7E4
:10224000184A7832904203D1486840F07060D5E770
:10225000154A111F904203D1086840F00F0006E0B4
:10226000114A1432904204D1086840F0F00008602E
:1022700070470D4A2832904203D1086840F47060DC
:10228000F5E7094A3C32904203D1086840F47040B7
:10229000EDE7054A50329042EAD1086840F47020D8
:1022A000E5E7000008000240080402400246002062
:1022B000D10001D5034900E003490968114200D06B
:1022C000012070470004024000000240002A02681A
:1022D00001D00A4300E08A430260704730B50268CB
:1022E00047F6F0739A430C6A8B682343D1E904459F
:1022F0002C4323438C692343CC6923434C6A2343F7
:102300008C6A234313430360CA6842600A68826090
:102310004968C16030BD000070B50546002418A1B1
:10232000FDF752FF28B3401C0546FDF76BFF14284C
:1023300001D9142002E02846FDF764FFC3B2002053
:10234000104A09E0295C222908D0165C8E4201D08F
:1023500001241154401CC0B29842F3D3115C11B156
:102360000021115401E0002C09D0BDE8704001F0BB
:1023700097BA2946BDE8704003A003F035B870BD98
:1023800022000000C00A00205B6572726F725D203F
:10239000445343492068616E646C653A2025730D8F
:1023A0000A0000002DE9F047DFF89490254F4FF028
:1023B0003008D9F8001001F11005088A0E7A08B922
:1023C000042E04D0AC88A04215D8042614E01E497F
:1023D0000878012803D00726102038802BE01B4AFC
:1023E000002012681A4B92B203EB42025060A7F829
:1023F000008008701FE00226844200D90446A968C4
:10240000204688478246002000F0A2FB0146224673
:10241000504602F003FF2146002001F005FB28880A
:10242000001B2880688820446880A7F8008009493C
:102430004FF440500880D9F800000672BDE8F087DC
:1024400064050020740500205C050020505C0040FD
:1024500000600040720500202DE9F047224EDFF8B1
:102460008C803027346834F8100FA168A9B100B30C
:10247000A588854200D90546284688478146208898
:10248000401B2080608828446080002000F040FBD2
:1024900001462A46484600F05DFF208848B11449AD
:1024A0004FF4405008800021084601F0BDFAA8F81A
:1024B00000702088A188884201D3032001E020B168
:1024C000052031680872BDE8F0873168062008727F
:1024D000084900200968084A89B202EB41014860B6
:1024E000A8F80070EFE700006405002074050020E4
:1024F00072050020505C004000600040F8B55C4C64
:102500005C4D09262068002729684278062A05D0F4
:10251000AAB1082A4BD00A2A4ED069E002785206A6
:1025200066D18078012804D0022804D0032804D082
:102530005EE0C96954E0096A52E0496A50E04288A5
:10254000A2BBC288022A53D102797ABB0278530611
:1025500001D1838833B102F07F02012A04D0022A1C
:102560000CD045E044493BE08A694079002190471E
:10257000E0B92068807A0028F4D139E0417901F08F
:102580000F0001F070020B063C4951F8201003D5F2
:10259000C1F30111090102E0C1F301310903384B14
:1025A0001B78834224D90AB90029DBD120E00078C6
:1025B00040061DD1334913E0027802F07F02012A60
:1025C00016D1827AA2B1428892B9027982B9C288C0
:1025D000012A0DD18A6940790021904740B92A49E2
:1025E00031B120684782816100208847002006E0E1
:1025F00029682068096940788847032807D021683E
:102600000A8AA2F57F43FF3B04D10E72F8BD206811
:102610000672F8BD022809D042B10878000621D51B
:10262000C8880090824205D9088213E04FF0080064
:102630000872F8BD0ED22868144B90F82C00824224
:1026400001D21F7006E0B2FBF0F400FB142008B9C1
:1026500001201870286890F82C008882BDE8F840A6
:10266000FFF7A0BE03200872094900030880F8BDE7
:102670006405002068050020CD3D0008005C004096
:10268000A8040020613D0008A53D00085C0500206D
:10269000720500202DE9F041074604784678FDF7E1
:1026A000B1FD80B202283DD3404D522C49D00CDC04
:1026B000432C20D004DC212C18D0422C11D12FE047
:1026C000482C21D04D2C0CD123E0682C1CD004DCEC
:1026D000622C25D0632C04D10DE06D2C19D0722C06
:1026E0002FD0214632A002F07FFE57E0287820F05C
:1026F0001F00193055E0032801D2312E12D028785E
:1027000020F01F00401C4CE0287820F01F00C01C67
:1027100047E0042806D3287820F01F00801C40E002
:10272000032805D23946BDE8F04126A002F05CBE80
:10273000287820F01F00001D2870B8783038B87055
:1027400030E02878A6F1320120F01F001A302870FE
:102750002448254A062925D2DFE801F003080D1296
:10276000171B202100F0A3F920A015E0202100F084
:102770009CF921A010E0102100F099F921A00BE0B4
:10278000102100F092F922A006E00120107023A091
:1027900002E00020107026A002F026FE287820F02B
:1027A0001F002870303EAE71BDE8F081B4050020F6
:1027B0005B6572726F725D20696E7075743A202568
:1027C000630D0A005B6572726F725D20696E7075D1
:1027D0007420746F6F2073686F72743A2025730DC4
:1027E0000A00000000100140100200204154204F58
:1027F0004E310D0A000000004154204F4646310D75
:102800000A0000004244204F4E310D0A0000000033
:102810004244204F4646310D0A00000042442074D5
:102820006F75636875616E204F4E310D0A000000B0
:10283000424420746F75636875616E204F4646315F
:102840000D0A000001A002F0CFBD000044656275D2
:10285000674D6F6E5F48616E646C65720D0A0000B3
:1028600070B5064608480D0000680849086009D0A0
:10287000002405E0315D06A002F0B6FD641CA4B2A0
:10288000AC42F7D370BD0000080000200C0000200F
:102890002563000001F0B2BD0149012008707047B6
:1028A0006004002070470000014901204870704713
:1028B000600400202DE9F84300250220009500F077
:1028C00037F91A4E00901A4F30884FF4405840287C
:1028D0000CD80098E02182B2164800F03BFD41463A
:1028E000022001F069F83D70BDE8F883124CE078F1
:1028F00010B11048A060E5700098E02182B2A06895
:1029000000F028FDA06800990844A060A088084451
:10291000A0804146022001F04FF8A088318888420B
:10292000E2D33D70A5800120E070DDE75005002076
:102930004C050020A844002060040020014901202B
:10294000887070476004002038B50024032000948C
:1029500000F0EEF882B200904FF49071054800F05C
:10296000F9FC4FF44051032001F026F802480470AE
:1029700038BD0000A84500204D050020704700002C
:1029800004490A6822F010020A600A6802430A60D9
:102990007047000000200240034A116801F038012E
:1029A000014311607047000000200240F0B5CC7870
:1029B000002204F00F03E40601D58C7823430C7841
:1029C0004FF00F0C4FF0010EDCB105680E880EFAC7
:1029D00002F42640A64210D196000CFA06F725EA2A
:1029E000070703FA06F5CE783D43282E02D0482E7D
:1029F00002D002E0446100E00461521C082AE5D3E1
:102A000005600A88FF2A1CD94468002202F10806E2
:102A10000EFA06F50E882E40AE420ED196000CFA44
:102A200006F7BC4303FA06F7CE783C43282E00D1C4
:102A30004561CE78482E00D10561521C082AE5D3A5
:102A40004460F0BDF0B5144C002801DAE36900E001
:102A50006368450D2E0185B2C0F30157B540C0F340
:102A60000342032F05D0C6020AD503269640B3437E
:102A700007E023F07062636823F07063636002E034
:102A8000AB4343F0706201B12A43002801DAE261EE
:102A9000F0BD6260F0BD0000000001400246002071
:102AA000D2680A4200D0012070474161704701613D
:102AB00070470AB1016170474161704770B50646C1
:102AC0000D4600240846FDF79DFB014600220BE061
:102AD000A85C2C2801D1641CE4B2B44202F10102CA
:102AE00001D1D0B270BDD2B28A42F1DB6CB9002004
:102AF00009E02A5C2A2A01D1641CE4B200F1010039
:102B0000B442C0B2EED08842F3DB002070BD0000BA
:102B10000549096889B201EBC000044901EB400096
:102B2000008980B270470000505C004000600040A7
:102B30000549096889B201EBC000044901EB400076
:102B40008089C0F309007047505C0040006000407D
:102B50000449096889B201EBC000034931F810004B
:102B600080B27047505C0040006000400A4810B5D9
:102B70000168001D0468001D006808180BD00822B9
:102B8000064900F0F7F9054920460422BDE8104047
:102B9000103100F0EFB910BDE8F7FF1F4704002027
:102BA00038B50121102000F0ADFC10208DF8030095
:102BB00003218DF80210114CADF800006946204643
:102BC000FFF7F4FE10212046FFF76FFF2021ADF83C
:102BD000001069462046FFF7E9FE20212046FFF756
:102BE00064FF0220064CADF8000069462046FFF75E
:102BF000DDFE02212046FFF758FF38BD00100140DE
:102C0000000C014001A002F0EFFBFEE74861726496
:102C10004661756C740D0A000029818B02D041F465
:102C2000806101E021F48061818370472DE9FF47D5
:102C30000E46074601211546880300F04BFCDFF8DD
:102C40007490484600F0C4FD4FF48070ADF8000069
:102C50000024ADF804404FF00808ADF80270ADF85C
:102C600006600295ADF80C806946484600F0E6F82B
:102C700000214846FFF7D0FF0121C80300F02AFCDD
:102C8000DFF83490484600F0A3FDADF80040ADF801
:102C90000440ADF80270ADF806600295ADF80C8006
:102CA0006946484600F0CAF800214846FFF7B4FFDD
:102CB000BDE8FF8700380040003C00402DE9F04FA0
:102CC0008DB0012140F2991000F01CFC4FF44050EF
:102CD000ADF82C000324504F8DF82E4004268DF8BB
:102CE0002F600BA93846FFF761FE2025ADF82C5068
:102CF0008DF82E4018208DF82F000BA93846FFF7CD
:102D000055FE0121052000F0FDFB01214348FFF79E
:102D100099FEA802ADF82C008DF82F608DF82E409A
:102D20000BA93F48FFF742FE48F20800ADF82C001F
:102D30008DF82F608DF82E400BA93846FFF736FE30
:102D40004FF4FA5200213020FFF770FF01210220DA
:102D500000F0B4FBDFF8CCB05846FFF735FA324844
:102D600000903248019004A9002480274FF4807815
:102D70004FF4806A0895A1E8900510204FF4207662
:102D8000CDE902064FF48059CDE9099469465846C9
:102D9000FFF7A4FA2448012202210C3800F010FDAC
:102DA000012202215846FFF791FA012204215846D8
:102DB000FFF78CFA01215846FFF7FAF9012108467E
:102DC00000F07CFBDFF868B05846FFF7FDF91948C2
:102DD0000090194801A951C1089581E89005CDE9F5
:102DE000099469465846FFF779FA124801221146BC
:102DF0000C3800F0E5FC012202215846FFF766FA84
:102E0000012204215846FFF761FA01215846FFF7D5
:102E1000CFF90DB0BDE8F08F000C0140000230008A
:102E2000000801401C0402400C3C0040D80A00206D
:102E3000440002400C380040D80F0020F0B5054691
:102E40000C4602200021AA8B85B001264FF24003D8
:102E50001A40AA832884AF8BA268022A21D0A088B6
:102E600000B10226684600F085FBE1880098B1F5C4
:102E7000007F2CD07101B0FBF1F000EB8000A16865
:102E80004000B0FBF1F0401D80B20A21B0FBF1F030
:102E900000F00101401A4FF6FF72C0F34F0002EA42
:102EA0000121821EFE2A01D302200021E28808436C
:102EB00002432A8420886188A2890843A18811439B
:102EC0000843384340F40060A88305B0F0BD000A11
:102ED000D3E700000A4810B50078002409494FF4F0
:102EE0002072012806D008480068FDF73DF9074820
:102EF000047010BD06480068FDF736F90548F7E78D
:102F00000C020020BA050020000200200D02002063
:102F1000040200200E02002010B5134C2068017A34
:102F2000022904D0042902D0062905D015E0FFF7B4
:102F300039FA2068007A11E04178052909D1017831
:102F4000490606D1C07800F0E7FC08480068006A2E
:102F50008047074800688068804708202168087219
:102F6000BDE8104000F014BA640500206C05002094
:102F700068050020F0B500230A24302537261F46B7
:102F800010E0B4EB107F02D905EB107C01E006EBFA
:102F9000107C01F813C001EB430C00015B1C8CF8A2
:102FA0000170DBB29342ECD3F0BD000038B50121D3
:102FB000082000F0A7FA4FF48064ADF8004010201C
:102FC0008DF8030003200B4D8DF80200694628465A
:102FD000FFF7ECFC21462846FFF769FD6400ADF8D9
:102FE000004069462846FFF7E1FC21462846FFF7E6
:102FF0005EFD38BD000C01407047000001A002F0EA
:10300000F3F9FEE74D656D4D616E6167655F48617F
:103010006E646C65720D0A00002801D002F01EBDBE
:10302000704700002DE9F04142F2E40200212948F6
:1030300000F062F830220021274800F05DF82648B1
:1030400042220021303000F057F82348422200216C
:10305000723000F051F800251E4B022203249D70AF
:103060000A265D702946C8274FF01F0CC1EBC1002E
:1030700000EB012003EB8000491C42710571857152
:10308000C57145728572057280F8141480F8194470
:1030900080F8186480F81A74C9B2A0F81CC4082912
:1030A000E4D30C490120D87281F8270481F8430841
:1030B00008460A4980F85F4C00F5805080F87B4054
:1030C00000F2974004700520087001F21C4108705E
:1030D000BDE8F081D01C0020B43D002083350020E5
:1030E00070B5044602F048FD05462146FDF755F847
:1030F000284670BDFDF738B813460A461946FDF755
:1031000045B810B5FDF793F8C0B210BD01A002F0AC
:103110006BB900004E4D490D0A000000704738B5EC
:103120004FF4A06000F07EF826208DF80000012406
:103130008DF801408DF802408DF80340684600F09C
:103140003FF810208DF800008DF801408DF8024006
:103150008DF80340684600F033F834208DF8000005
:1031600003208DF801008DF8020000258DF8034042
:10317000684600F025F814208DF800008DF8014015
:103180008DF802508DF80340684600F019F8392098
:103190008DF800008DF801408DF802508DF8034045
:1031A000684600F00DF80E208DF800008DF8014003
:1031B0008DF802508DF80340684600F001F838BDE4
:1031C00070B50F23C278017801244FF0E025DAB101
:1031D000124A126802F4E062C2F5E062120AC2F119
:1031E0000406D3404278B24086781E400C4B16430A
:1031F0003201CA54007800F01F018C40400905EBF1
:103200008000C0F8004170BD01F01F0084404809F3
:1032100005EB8000C0F8804170BD00000CED00E0BF
:1032200000E400E0024908430249086070470000DA
:103230000000FA050CED00E070B52F4D2968087804
:103240004C78420606D000F07F00012828D00228E2
:103250002BD035E0092C06D0052C07D0032C0ED03E
:10326000012C14D02CE000F0F9FD28E0C8787F286C
:103270002ED8887860BB888850BB887A27E0C878C9
:1032800001281DD18888D8B900F004FE17E0C8785D
:10329000012815D1888898B9487A80060AD40FE0A9
:1032A0000B2C0DD100F048FE09E0012C02D0032CBC
:1032B00003D005E000F0DEFC01E000F0FDFD58B1B8
:1032C0000E492046096849698847032802D018B189
:1032D00008200DE009200BE0094A062000211268B1
:1032E000084B92B203EB42025160074A3021118031
:1032F0002968087270BD0000640500206805002080
:10330000505C0040006000407405002010B50F4C78
:103310002068007A022811D004280FD0032804D096
:10332000052802D0072805D008E0FFF795F82068A7
:10333000007A04E006480068C068804708202168D9
:103340000872BDE8104000F023B8000064050020BA
:1033500068050020064B521C520803EB410105D0C2
:1033600031F8043B20F8023B521EF9D170470000AF
:103370000060004001A002F037B8000050656E64A4
:1033800053565F48616E646C65720D0A0000000060
:103390000C4810B590F82C10002000F0EDFA0A4807
:1033A0000068007A082802D0092809D006E00749F9
:1033B0004FF480500880064910200880002010BD7E
:1033C000012010BDC8040020640500207205002003
:1033D0007405002010B5012001F03CFB06480121D6
:1033E00001600021054A0160031D19604FF4E0519E
:1033F00011800160002010BD405C0040700500207D
:1034000070B510A001F0F0FF174CA068174DE060F8
:1034100006E0A068E168401AA84204D8FCF7A8FFBB
:1034200060780028F5D0A068E168401AA84203D867
:10343000FCF7C0FFA07070BDBDE870400CA001F0AB
:10344000D3BF00007761697420666F7220415420F9
:103450006D6F64656C20706F776572206F6E202EC3
:103460002E2E0D0A0000000000000020E093040052
:103470005B6661696C5D20415420696E69740D0A58
:103480000000000070B50024094D0A4E0BE0C4EBAB
:10349000041000EB800005EBC0022146064801F055
:1034A000A3FF641CE4B230688442F0DB70BD00000E
:1034B000767C0020A4050020805D0008044A0029D5
:1034C000516901D0014300E0814351617047000020
:1034D00000100240044A0029D16901D0014300E0F4
:1034E0008143D1617047000000100240044A002966
:1034F000116901D0014300E0814311617047000070
:1035000000100240044A0029916901D0014300E003
:10351000814391617047000000100240044A002975
:10352000D16801D0014300E08143D16070470000C1
:10353000001002400C48016841F00101016041683F
:103540000A4A114041600168094A1140016001685E
:1035500021F480210160416821F4FE0141604FF4B3
:103560001F01816070470000001002400000FFF85A
:10357000FFFFF6FE30B5204A5168204B11F00C01D8
:1035800003D0042901D0082901D0036012E051685A
:10359000536801F470114FF0020413F4803F04EB00
:1035A000914102D053689B0301D5154B00E0134BAA
:1035B0005943016051680F2303EA1111114B5C5C00
:1035C0000168E14041605468072505EA14241C5D48
:1035D00021FA04F48460546805EAD4241B5DD940C0
:1035E000C1605268032303EA9232064B1B1F9A5CA8
:1035F000B1FBF2F1016130BD0010024000127A000F
:1036000000093D0034040020034600205909094AFE
:1036100001290AD002290AD0516A03F01F020123AE
:1036200093400B4200D0012070471168F5E7116A02
:10363000F3E70000001002400248406800F00C0070
:103640007047000000100240034A516821F0F00169
:103650000143516070470000001002400B490A68A6
:1036600022F480320A600A6822F480220A60B0F5EF
:10367000803F07D0B0F5802F03D1086840F4A02028
:1036800008607047086840F48030F9E70010024095
:10369000034A516821F4E061014351607047000022
:1036A00000100240034A516821F4605141EAC00011
:1036B00050607047001002400149086670470000E2
:1036C00000004242034B5A68084322F47C12104324
:1036D0005860704700100240034A516821F003010E
:1036E000014351607047000000100240014908602A
:1036F00070470000D800424218B500204FF4A06483
:1037000000903120FFF780FF0099491C0091A142F1
:1037100001D00028F5D03120FFF776FF002800D037
:10372000012018BD70B51C4C072800D020702078EF
:1037300006260425194906282CD2DFE800F00306E6
:10374000090E162000F02CF824E000F029F80AE019
:10375000022060700320207070BD6078401E607091
:1037600060780028F8D1257070BD086880B240F0FC
:1037700010000860052020700A20607070BD60781D
:10378000401E607060780028F8D1086880B220F090
:1037900010000860267070BD49050020405C0040A4
:1037A00010B5064C206880B220F004002060FFF7BE
:1037B00023FC4FF43F40206010BD0000405C0040FF
:1037C000002A828801D00A4300E08A438280704741
:1037D000114910B588420AD1841401212046FFF70F
:1037E0009DFE2046BDE810400021FFF797BE0B4923
:1037F000884202D10121041404E0094988420AD117
:103800000121C4132046FFF771FE2046BDE8104099
:103810000021FFF76BBE10BD0030014000380040B2
:10382000003C004001A001F0DFBD00005356435FA3
:1038300048616E646C65720D0A0000002DE9F0416C
:1038400017460D46064613B1ADB1002421E00DB177
:1038500000240DE00146104602F0EBF980B9BDE806
:10386000F08156F82410384602F0E3F9A8B9641C38
:10387000AC42F6D30FE001461046FCF7CAFC50B943
:103880000120ECE756F824103846FCF7C2FC20B1C2
:10389000641CAC42F6D30020E1E7601CDFE70000C7
:1038A00010B50E4C207820F01F00401C20700C48F2
:1038B000FCF7A8FC801C60800420A0710848C07D33
:1038C000E0710748FCF79EFC421C054904F1080022
:1038D000FCF74AFCBDE8104001F080BA3A0800202D
:1038E000C00A002010B5FF22064C03E011F8013B8E
:1038F0005340E25C0300A0F10100C0B2F6D1C2F176
:10390000FF0010BD375E0008024920F00700086084
:1039100070470000505C0040F0B50D490D4E48F670
:103920008F770D78002148F2800C09E0CAB206EBCF
:1039300082031C683C40144344EA0C041C60491C8C
:10394000A942F3D3034940F080004C310860F0BD38
:10395000A8040020005C0040054A21F00101126823
:1039600092B202EBC000034A02EB40008160704754
:10397000505C0040006000400D4A12683E2992B23F
:1039800002EBC0000B4A02EB400209D94809C90604
:1039900001D1401E80B24FF4004141EA802004E092
:1039A0004808C90700D0401C800210607047000022
:1039B000505C00400C6000400A4A02EB8002106834
:1039C0004BF68F7300EA0300CB0401D580F48050DE
:1039D000890401D580F4005048F28001084310604A
:1039E00070470000005C0040064901EB8000016860
:1039F0004BF68F72114081F4405148F2800211431E
:103A000001607047005C0040054A21F00101126826
:103A100092B202EBC000034A42F810107047000057
:103A2000505C004000600040044A126892B202EB11
:103A3000C000034A02EB400041607047505C004008
:103A4000006000400A4A02EB8002106848F6BF732B
:103A500000EA0300CB0601D580F01000890601D5ED
:103A600080F0200048F28001084310607047000099
:103A7000005C0040064901EB8000016848F6BF7217
:103A8000114081F0300148F280021143016070471B
:103A9000005C0040044A02EB8000026848F68F1385
:103AA0001A400A4302607047005C00400CB50022D7
:103AB000264800920192016841F4803101604FF480
:103AC000A063016801F4003101910099491C009143
:103AD000019911B900999942F3D10168890333D54D
:103AE000012101911A490A6842F010020A600A682D
:103AF00022F003020A600A6842F002020A6041688A
:103B0000416041684160416841F4806141604168C1
:103B100021F47C114160416841F4E8114160016881
:103B200041F08071016001688901FCD5416821F094
:103B300003014160416841F0020141604168C1F305
:103B400081010229FAD10CBD01920CBD0010024086
:103B50000020024038B5FFF7EDFC4FF480342046DA
:103B6000FFF77CFDFFF7C8FD21490128087000D050
:103B7000FEE71020FEF704FF0220FEF70DFF0020F5
:103B8000FFF762FD0020FFF78DFD4FF48060FFF727
:103B90007FFD4FF4E0112046FFF794FD0120FFF771
:103BA0008BFD3920FFF730FD0028FAD00220FFF707
:103BB00093FDFFF741FD0828FBD101214006FFF7E7
:103BC00089FC01212020FFF79DFC4FF40050ADF847
:103BD000000002208DF8020010208DF803006946D5
:103BE0000448FEF7E3FE01211020FFF78BFC38BDEF
:103BF000440400200014014010B50020FFF776FDBA
:103C00000121BDE81040C805FFF764BC70B5164837
:103C10000068174D81B2154800EB4101098989B24E
:103C200000EB41042868017A09290FD0217801703E
:103C300061784170A088FDF75BFF29684880208982
:103C4000FDF756FF29688880A089C880286801216F
:103C50000172C08828B1FEF751FCBDE87040FFF743
:103C600097BBFFF7E9FAF8E7505C004000600040BE
:103C7000640500202DE9F04134480068017811F016
:103C80007F0102D0022905D05DE0417A01F0DF0119
:103C9000417247E04188002955D10179F1BB417952
:103CA0002C4D21F080040A06294B55F8242003D519
:103CB000C2F30112120102E0C2F3013212031E78B4
:103CC0002346A6423FD94AB3807A38B308060DD5B9
:103CD00055F82400C0F3011001281DD11846FEF745
:103CE0002FF820463021FFF7ADFE15E005EB8406E6
:103CF0003068C0F3013001280ED14BF68F7748F2BF
:103D0000800894B11846FEF709F83068384080F40E
:103D1000405040EA080030600F4800E013E00068BF
:103D2000406980470020BDE8F0810C4890F82C10D5
:103D30000020FFF721FE2868384080F4405040EA18
:103D400008002860E8E70220EDE700006405002095
:103D5000A8040020005C00406C050020C80400207E
:103D600010B5074C30B107480068006880472068EC
:103D70000A3010BD216801200882002010BD00001B
:103D8000640500206C050020054A13685A8A10B1AA
:103D90000868104470478888801A1882002070478D
:103DA0006405002010B5074C30B1074800688068F2
:103DB000804720680C3010BD216801200882002057
:103DC00010BD0000640500206C0500201F4910B5DF
:103DD000096860B11E48002202800A7853060AD0A2
:103DE00002F07F02012A16D0022A16D001E002203A
:103DF0000882002010BD497A8A06027802D542F076
:103E0000020201E002F0FD0249060270D1B210D4B4
:103E100001F0FE010FE00E4810BD497901F00F02DC
:103E20000B060C4951F8221007D5C1F3011106E029
:103E3000017841F00101017003E0C1F30131012972
:103E4000F6D00548006800698047E4E76405002073
:103E50005E050020005C00406C0500200A4810B59B
:103E600000680A4AC1785278914203D882780AB928
:103E700082880AB1022010BD81720548006840683E
:103E80008047002010BD000064050020A804002029
:103E90006C050020064810B50068417A41F0200109
:103EA000417204480068C0698047002010BD0000CE
:103EB000640500206C05002070B51B4802681B4893
:103EC000517921F0800500EB85000B06036821F095
:103ED000800403D5C3F301131B0102E0C3F30133D4
:103EE0001B03134D2D78A5420FD954886CB963B1CB
:103EF000927A52B10906016848F2800207D548F665
:103F0000BF73194081F0100106E0022070BD4BF62E
:103F10008F73194081F48051114301600548006896
:103F200080698047002070BD64050020005C00406F
:103F3000A80400206C05002010B50E4C0E4A206825
:103F40001268C17892694079904721688A7A22B1D3
:103F500018B9087908B9887808B1022010BD074857
:103F60000068C068804720684179C172C1780173D8
:103F7000002010BD64050020680500206C050020AD
:103F80000648016889B241F008010160016889B200
:103F900041F004010160FEF7F1BC0000405C00400C
:103FA00002480168491C01607047000008000020B9
:103FB0000F4810B5016841F00101016041680D4AE8
:103FC0001140416001680C4A11400160016821F410
:103FD00080210160416821F4FE0141604FF41F011E
:103FE0008160FFF763FD05494FF00060086010BD78
:103FF000001002400000FFF8FFFFF6FE08ED00E0B1
:104000002DE9F0417E4E002401253078C1067DD097
:10401000314600F01F00CA79897906F28627042804
:104020004FD006DC01280DD0022824D0032806D169
:104030002CE0052872D019286AD01A2869D00146C8
:1040400070A083E0012906D0022908D0032909D0F5
:10405000002574A024E0F01DFCF7CCFF28E0FDF75C
:10406000D3F825E0FDF760F822E03078397860F386
:1040700004013970B7E0012902D0002572A00FE0D9
:104080005F4910460831FCF725FA11E001290AD0F2
:1040900002290BD003290DD005290ED0002573A0CD
:1040A00001F0A2F9E1E7FCF7FFFB01E0FCF7A8FB58
:1040B0000446DAE7FCF7A6FEFAE7F01DFCF748FC39
:1040C000F6E7012904D0022907D0002570A013E0EB
:1040D0001046FDF715FC044610E01046FDF73CF9CC
:1040E00004467348FCF78EF8421C724870498046BB
:1040F000FCF73AF8414670A001F076F9307839784B
:1041000060F304013970B079B87103E076E005E03E
:1041100017E026E0F079F8713C7267E06A4D4FF4E1
:10412000806421462846FEF7B9FCC0F10100C2B206
:1041300021462846FEF7BDFCFEF7CCFE00F0C6FE89
:1041400058E0012905D0022907D060A001F04CF900
:1041500050E0F01DFCF79EFE4CE0F01DFDF7F0F87E
:1041600048E06348634A08292FD2DFE801F02E04B3
:104170000A10181E2429FCF71DF95F49044608702F
:1041800027E02021FEF793FC01245CA004E020211D
:10419000FEF78BFC01245BA001F026F919E0102149
:1041A000FEF785FC01245AA0F6E71021FEF77DFCFE
:1041B000012459A0F0E701201070044659A0EBE754
:1041C0000020107001245CA0E6E700255FA001F04C
:1041D0000BF93078397860F30401397070787978A8
:1041E00060F306017970B079B871FC71012D01D1CD
:1041F00000F0F4FD307820F01F003070BDE8F08151
:10420000B4050020756E6B6E6F776E206465627505
:1042100067207461736B3A746F73203D2025640DC1
:104220000A000000756E6B6E6F776E2063616C6CB8
:10423000207461736B3A646174615B305D203D2072
:1042400025640D0A00000000756E6B6E6F776E209E
:104250006D657373616765207461736B3A64617433
:10426000615B305D203D2025640D0A00756E6B6E2C
:104270006F776E20726573637565207461736B3A36
:10428000646174615B305D203D2025640D0A00008F
:10429000756E6B6E6F776E204244207461736B3A5B
:1042A000646174615B305D203D2025640D0A00006F
:1042B000301A0020430800204244205553423A203F
:1042C00025730D0A00000000000C0140756E6B6E36
:1042D0006F776E206465627567207461736B3A64F2
:1042E0006174615B305D203D2025640D0A00000093
:1042F0000010014010020020020000204154204F15
:104300004E0D0A004154204F46460D0A00000000A1
:104310004244204F4E0D0A004244204F46460D0AAB
:1043200000000000424420746F75636875616E2060
:104330004F4E0D0A00000000424420746F75636800
:1043400075616E204F46460D0A000000756E6B6E5B
:104350006F776E20496E6974207461736B3A646183
:1043600074615B305D203D2025640D0A0000000073
:104370004FF0E02040F283314161044AF021117096
:1043800000218161032101617047000023ED00E0FD
:1043900070B5164C40F22551204600F0C2FA0028B4
:1043A00012D0204600F04EFBC0B2114D114C0A282D
:1043B0000BD02288A854521C90B22080B0F5967F72
:1043C00002D340F22B10208070BD208800262844A4
:1043D00000F8016C0648FEF75DF92288A91C921EC0
:1043E0000548FBF7C1FE268070BD0000004C004070
:1043F0002846002076050020BB05002030B587B098
:1044000001211020FFF77EF80121C804FFF762F8B0
:104410004FF48060ADF8100003248DF8124018208E
:104420001E4D8DF8130004A92846FEF7BFFAE914C3
:10443000ADF8101004218DF8131004A92846FEF7DA
:10444000B5FA4FF4E13000900020ADF80400ADF86B
:104450000600ADF80800ADF80C000C20104DADF8CA
:104460000A006946284600F093FA34208DF81400BB
:104470008DF815408DF8164001208DF8170005A81D
:10448000FEF79EFE012240F22551284600F068FA10
:104490000121284600F02CFA07B030BD0010014081
:1044A000004C004010B586B001211020FFF72AF81B
:1044B00001212020FFF726F801210805FFF70AF85F
:1044C0004FF48050ADF8100003208DF81200182032
:1044D0008DF8130004A91348FEF768FA0420ADF81C
:1044E00010008DF8130004A90F48FEF75FFA4FF48F
:1044F000E13000900020ADF80400ADF80600ADF802
:104500000800ADF80C000C20084CADF80A00694614
:10451000204600F03DFA0121204600F0E9F906B0FE
:1045200010BD000000100140001401400050004088
:1045300070B5164C40F22551204600F0F2F90028E3
:1045400012D0204600F07EFAC0B2114D114C0A285C
:104550000BD02288A854521C90B22080B0F5967FD0
:1045600002D340F22B10208070BD20880026284402
:1045700000F8016C0648FEF78DF82288A91C921EEF
:104580000548FBF7F1FD268070BD000000380140B2
:104590002846002076050020BB0500202DE9F05FAD
:1045A0005FEA0108154981460868154D286022D048
:1045B0000024DFF850A04FF47A778B4619E019F801
:1045C00004105646504600F041FAB2465E4606E0F8
:1045D0002968401AB84202D96320BDE8F09F402103
:1045E000504600F097F901283068F1D1641CA4B25C
:1045F00028604445E3D30120EFE7000008000020D5
:104600000C000020004400402DE9F047254D824673
:104610005FEA01082868244EDFF890904FF47A771B
:10462000306017D0002413E01AF80410484600F058
:104630000DFA03E03168401AB84226D840214846B6
:1046400000F068F901282868F4D1641CA4B2306035
:104650004445E9D30D214C46484600F0F7F903E004
:104660003168401AB84210D84021204600F052F973
:1046700001282868F4D130600A21204600F0E6F9CC
:1046800006E03168401AB84202D96320BDE8F087DD
:104690004021204600F03EF901282868F1D1306021
:1046A0000120F3E7080000200C0000200044004037
:1046B000F0B5012191B04804FEF70CFF0121042060
:1046C000FEF720FF0424ADF82C400325374F8DF86A
:1046D0002E5018268DF82F600BA93846FEF766F984
:1046E0000820ADF82C008DF82F400BA93846FEF7B6
:1046F0005DF90220ADF82C008DF82E508DF82F605A
:104700000BA93846FEF752F90120ADF82C008DF8C0
:104710002F400BA93846FEF749F94FF4E1300C90D1
:1047200000242802ADF83C00ADF838400C20204DA4
:10473000ADF83440ADF83A00ADF836400CA9284643
:1047400000F026F9012240F22441284600F008F941
:104750000121284600F0CCF801210846FEF7AEFE04
:10476000281D00901348CDE901044FF4FA70CDE9FB
:1047700003048020CDE905048001CDE908400794B9
:104780000A940D4C69462046FDF7A8FD01212046FC
:10479000FDF70EFD012202212046FDF797FD0122C3
:1047A0004021284600F0AEF811B0F0BD00080140ED
:1047B00000440040AC4900206C0002402DE9F04765
:1047C000304C40F22441204600F0ABF8012857D18C
:1047D0002088201D0088DFF8B09000214846FDF7B2
:1047E000E7FC29486C38016FC1F5FA710C04240C00
:1047F00040D026490122264F0B784FF4FA71254EFE
:10480000DFF894800025016731888BB151B3358082
:10481000C0F8788001214846FDF7CAFC308801289D
:1048200023D01B483D552146BDE8F047FBF7F2BEBB
:1048300081B13580C0F8788001214846FDF7B8FC89
:104840003088012809D012483D552146BDE8F0477F
:1048500001F01AB832808767EEE708F80450214665
:104860000D48F3E732808767D4E708F80450214603
:104870000948D9E74846BDE8F0470121FDF798BC53
:10488000BDE8F087004400406C00024000000020BA
:10489000817A002078050020AC49002070B50446DC
:1048A000124D0AE014F8011C284600F0CFF8402110
:1048B000284600F02FF80128F9D114F8010B002840
:1048C000F0D10D21284600F0C1F84021284600F023
:1048D00021F80128F9D10A21284600F0B7F8402133
:1048E000284600F017F80128F9D170BD00500040AB
:1048F0000029818902D041F4005101E021F40051E6
:1049000081817047002A828A01D00A4300E08A43ED
:10491000828270470246002012880A4200D001209D
:10492000704770B501F01F0501260024C1F3421342
:1049300006FA05F2012B0FD0022B0FD0838A4FEA23
:1049400011210088134206FA01F600EA060001D0A0
:1049500000B10124204670BD8389F0E7038AEEE7A9
:1049600010B5C1F3421301F01F040121A140012B36
:1049700007D0022B07D01430002A026805D00A4362
:1049800004E00C30F8E71030F6E78A43026010BD0F
:1049900030B50446008A85B00D464CF6FF710840DC
:1049A000E98801432182A0894EF6F3110840A988C5
:1049B0002A8911436A8902431143A181A08A4FF6D3
:1049C000FF410840A9890143A1826846FEF7D2FD54
:1049D0001B48844201D1039800E00298A189090490
:1049E000002900EBC00101EB0010296802DA4FEA50
:1049F000410101E04FEA8101B0FBF1F06422B0FB1C
:104A0000F2F14FEA01114FEA11136FF018056B43F1
:104A100000EB8300A3891D044FF0320306D503EB9E
:104A2000C000B0FBF2F000F0070005E003EB00105F
:104A3000B0FBF2F000F00F000843208105B030BD5C
:104A4000003801408088C0F308007047C1F30801B6
:104A500081807047044A00284FF40051104601D06D
:104A6000FEF725B8FEF721B8001401402DE9F0410A
:104A700000240D4606464FF47A7840292AD9C5F31A
:104A8000871711E04022A021304600F0C7FB4021EB
:104A90000120FEF7C9FF0120FEF7ECFF403640463B
:104AA00000F0D0FB641CE4B2BC42EBD305F03F0441
:104AB0002246A021304600F0B1FB21460120FEF73E
:104AC000B3FF0120FEF7D6FF404600F0BBFB0120FC
:104AD000BDE8F081AAB2A02100F0A0FBA9B2EDE7E9
:104AE00070B50C4C00221346A5680DB1A180A360DF
:104AF00025780DB1002070BD074D05E0AE5C00F8D3
:104B0000016BAB54521C92B28A42F7D30120207041
:104B1000A06070BD4C050020A844002070B50C4C6E
:104B200000221346E5680DB16180E36065780DB140
:104B3000002070BD074D05E0AE5C00F8016BAB5482
:104B4000521C92B28A42F7D301206070E06070BDBF
:104B50004C050020A845002010B50C468AB24FF441
:104B6000B07100F05BFBA1B20320FEF75DFF0320F4
:104B7000FEF780FFBDE810404FF47A7000F08EBB66
:104B800006490548022208600272064A0448C1E943
:104B900001020068004700000C4600206405002068
:104BA000C80400202005002070B52A4C20682A4D3A
:104BB00068806888294E31880840000401D5FCF7D8
:104BC0009DFF688831880840400505D54FF6FF30C5
:104BD0002060234840688047698830880140890404
:104BE00002D54DF6FF71216069880140C80405D5E2
:104BF0004EF6FF7020600020FEF794FD6888318833
:104C0000084000050BD51748007810B1FFF7B8F938
:104C100002E00220FEF786FD4FF2FF7020606988F7
:104C200030880140890506D54FF6FF51216029786B
:104C300001F101012970698801EA0001C80507D561
:104C40004FF6FF602060BDE870400720FEF76ABDA8
:104C500070BD0000445C00406C0400207005002022
:104C6000C804002048050020FFF79EBF10B538217A
:104C70001E48FFF753FF1D4C60B1207841091BD03F
:104C800000F01F0241091AA000F0AEFB207820F0CE
:104C90001F00207040F286211448FFF721FF0028F2
:104CA00023D0207841090ED000F01F024109A379DA
:104CB0001DA000F099FB0FE000F01F01BDE81040BF
:104CC00028A000F091BB00F01F01052906D00229A1
:104CD0000BD02EA000F088FB207803E0364909783D
:104CE000002902D120F01F00207010BDB405002063
:104CF0005B6572726F725D2065703320696E7465DA
:104D000072757074207265636569766520636F6D76
:104D10003A2070726F203D2025642C20746F732020
:104D20003D2025640D0A00005B6572726F725D2084
:104D30006570322062756C6B20726563656976659B
:104D400020646174613A2070726F203D2025642CCC
:104D500020746F73203D202564202C2025640D0ACB
:104D60000000000065703320696E746572757074A0
:104D7000207265636569766520636F6D3A20746F94
:104D800073203D2025640D0A000000005B657272EF
:104D90006F725D206570322062756C6B2072656386
:104DA0006569766520646174613A20746F73203D93
:104DB0002025640D0A000000A00500200549002000
:104DC000086005494FF43F4008800249091F086008
:104DD00000207047445C0040700500201CB50A4864
:104DE000017821F0E0010170437A027ACDE90023D5
:104DF000C379827905A000F0F7FABDE81C4038219C
:104E00000148FFF7A9BE00003A0800205553422090
:104E10006261636B3A746F733D25642C2025327890
:104E20002025327820253278202532780D0A00009E
:104E300070B50F4C054602202070A0712846FBF784
:104E4000E1F9421C294604F108000546FBF78CF9FC
:104E50002078A27900F01F012B4606A000F0C4FACA
:104E60002046BDE8704040F28621FFF7FFBD0000FC
:104E70003A080020555342206261636B3A746F73A5
:104E80003D25642C20253278206D65733A25730DFD
:104E90000A00000001460C4810B505220270D2013C
:104EA0004280437823F07F0343F080034370012363
:104EB00003714371801DFBF757F9BDE8104040F2C4
:104EC00086210148FFF7D2BD3A080020114810B5ED
:104ED0000268114942F210730A60104903E0046845
:104EE000A41A9C4202D80C78002CF8D000240C7034
:104EF0000B480078012806D00A480068FFF7CAFF6F
:104F00000948047010BD09480068FFF7C3FF08484E
:104F1000F7E70000080000200C0000200902002034
:104F200008020020F80100200A020020FC010020F5
:104F30000B0200200146014800F056BA645D0008EB
:104F40002DE9F041054661A100F073FE614C38B1D6
:104F5000E07D012802D04FF48E710BE0022037E093
:104F60005DA1284600F065FE40B1E07D022803D037
:104F700040F227115AA098E0032029E062A12846B8
:104F800000F057FE4FF0040860B1E07D032804D024
:104F90000D2805D04FF49B71ECE784F8178086E06C
:104FA0000E2015E05AA1284600F043FE002720B14C
:104FB000E07DB0B940F24111DCE758A1284600F08D
:104FC00038FE38B1E07D10B14FF4A771D2E70C2064
:104FD000E0756CE053A1284600F02BFE30B1E07D77
:104FE00008B1E77563E040F25911C3E74FA12846C5
:104FF00000F01FFE504C012608B1667057E04FA12B
:10500000284600F016FE10B16770A7704FE04EA161
:10501000284600F00EFE38B129464DA000F0E4F914
:105020002846FDF779F942E04CA1284600F001FE40
:105030004E4CD8B1687B302812D0312801D03228AC
:1050400010D029464AA000F0CFF9207820F01F00A8
:10505000C01C207084F80680687B2F38E07112E055
:105060004AA000E04FA000F0BFF9EEE753A12846A8
:1050700000F0DFFD50B1207820F01F00401C2070B0
:105080000520A071E671FFF7A9FE10E0284600F0A8
:105090000DFDA8B142A12846FBF796F818B1401CB7
:1050A000FFF7C6FE03E0294646A000F09DF9FCF795
:1050B000D7FD29464BA000F097F90120BDE8F0810B
:1050C0002846FFF737FF0020F8E700005E4F5249FF
:1050D00047000000C00A00205E434F4E460000001B
:1050E0005B6572726F725D20737461746520756E9A
:1050F0006B6E6F776E206174206C696E65203A204C
:1051000025640D0A000000005E434F4E4E00000073
:105110004E4F2043415252494552000052494E479A
:10512000000000005E43454E440000005E53494DC0
:1051300053543A2031000000000000205E53494DD6
:1051400053543A20300000005E44534349000000AD
:10515000445343493A2025730D0A00002B5353450D
:105160004E445354415455533D0000003A0800202A
:105170005B6661696C5D2072657363756520626151
:10518000636B3A2025730D0A00000000726573639B
:105190007565206261636B20736563636565640D8B
:1051A0000A0000005B6661696C5D2072657363755F
:1051B00065206261636B0D0A000000004D4F44459D
:1051C0003A0000005B6572726F725D206D657373EB
:1051D00061676520726563726C7665203A2025737D
:1051E0000D0A000068616E646C656420636F6D6D0C
:1051F000656E643A2025730D0A00000001A000F0DE
:10520000F3F8FEE755736167654661756C745F4836
:10521000616E646C65720D0A00000000084B10B5E9
:10522000521C520803EB410108D003784478801CDB
:1052300043EA042321F8043B521EF6D110BD0000BE
:10524000006000400C4910B50A680C4B00EB800070
:105250001A600B4B0C68A41AB4EB400F04D909A0D8
:1052600000F0C2F8002010BD1C78002CF2D0002005
:105270001870012010BD0000080000200C00002064
:10528000600400205B6661696C5D205553422065B7
:1052900070312073656E640D0A00000010B50E4A6F
:1052A00011680E4B00EB800019600D4B1468641AF6
:1052B000B4EB400F04D90BA000F096F8002010BD0D
:1052C0001C78002CF2D0002018701068411A0BA036
:1052D00000F08AF8012010BD080000200C0000201A
:1052E000620400205B6661696C5D20555342206555
:1052F00070332073656E640D0A0000005553422020
:105300006570332073656E64204F4B2025640D0A51
:10531000000000002DE9FF5F8246284800248168D4
:10532000274BC160274E284DA146834602EB8208D9
:105330001C60DBF80810DBF80C00091AB1EB480F11
:1053400036D9019810B1DAF8001000E051461FA0DC
:1053500000F04AF8632004B0BDE8F09FC0EB0010F5
:1053600000EB80006CB106EBC000FFF7E9FD286898
:10537000401C2860142801DBC5F80090CCB1E0B2D5
:10538000E9E706EBC0025046039B0199FEF756FA87
:1053900004000AD12868C0EB001000EB800006EB87
:1053A000C000FFF7CDFD0028E1D1FBF79DFFDEE750
:1053B0000C4F286839688142BBD0CFE7000000203D
:1053C000A4050020A14B00207C0500205B74696DC2
:1053D000656F75745D207761697420666F72202532
:1053E000730D0A00880500200FB4054B10B503A902
:1053F000044A029800F018F810BC5DF814FB000095
:10540000455A0008A805002002E008C8121F08C17C
:10541000002AFAD170477047002001E001C1121F35
:10542000002AFBD1704700002DE9FF4F8DB00F46D9
:1054300005460026DEE1252874D100246D1CF149C3
:10544000A246A14601222B78203B02FA03F0084233
:1054500002D004436D1CF6E728782A2810D06FF09C
:105460002F022878A0F13001092915D80AEB8A010A
:1054700002EB410144F0020400EB010A6D1CF0E76D
:1054800057F804ABBAF1000F03DA44F40054CAF140
:10549000000A44F002046D1C28782E2817D115F854
:1054A000010F44F004042A280ED06FF02F02287850
:1054B000A0F1300109290AD809EB890102EB410169
:1054C00000EB01096D1CF2E757F8049B6D1C28786E
:1054D0006C280FD006DC4C2817D068280DD06A281D
:1054E00014D104E0742810D07A280FD10DE044F4D0
:1054F00000140AE044F4801401E044F44014697894
:10550000814202D16D1C04F580146D1C2A786E2A2C
:1055100020D00DDC632A33D005DC002A6FD0582A56
:1055200012D1A2E011E0642A6AD0692A0CD167E0A6
:10553000732A2FD004DC6F2A6FD0702A04D199E02F
:10554000752A6BD0782A6AD01046DDE90F12904791
:10555000761C4EE1C4F30250022806D003280AD07C
:10556000042801CF0AD0066043E101CF4FEAE6717B
:10557000C0E900613DE101CF06803AE1067038E103
:1055800017F8040B8DF8000000208DF80100EB46A1
:10559000012003E057F804BB4FF0FF3061074FF0E4
:1055A000000102D40DE008F10101884649450FDAF7
:1055B0008045F8DB1BF808100029F4D108E008F159
:1055C000010188468142FADB1BF808100029F6D158
:1055D000DDE90F23AAEB08008146214600F03BF9E4
:1055E000304400EB080604E0DDE90F121BF8010B64
:1055F0009047B8F10108F7D221464846F4E0FDE0B3
:105600000A21C4F302534FF0000B0891022B07D07C
:1056100001CFC117032B09D00AE034E023E024E0D6
:10562000FF1D27F00707F7E8020105E000B2C117E8
:10563000042B01D140B2C117002907DA4FF0000C4A
:10564000D0EB0C006CEB01012D2302E0230504D507
:105650002B238DF82430012303E0E30701D020231E
:10566000F7E7984650E00A210EE010204FF0000BBB
:1056700008900CE010214FF0000B44F004044FF0B0
:105680000809089103E008214FF0000B0891C4F3CA
:105690000253022B04D001CF0021032B06D006E0D9
:1056A000FF1D27F00707F7E8020103E080B2042B93
:1056B00000D1C0B24FF00008230725D5702A2AD0A8
:1056C000DDF820C08CF0100C5CEA0B0C09D150EA1C
:1056D000010306D030238DF824308DF825200223D5
:1056E0009846DDF820C08CF0080C5CEA0B0C0BD15E
:1056F00050EA010301D1630706D530238DF8243029
:105700004FF00108A9F10109582A09D03EA20B92D5
:1057100008AA0A9211E040238DF824300123DFE724
:105720003EA2F4E75B46089AFAF790FD0B9B9B5C60
:105730000A9AA2F101020A92137050EA0102F1D111
:105740000A98ADEB000000F1200B600702D524F4AD
:10575000803401E04FF00109D94502DDA9EB0B00CF
:1057600000E0002000EB0B0141440890AAEB010A85
:10577000E00306D4DDE90F232146504600F06BF824
:105780000644002008E009A911F80900DDE90F121C
:105790009047761C09F1010081464045F3DBE003A8
:1057A0000CD5DDE90F232146504600F054F806449D
:1057B00004E0DDE90F1230209047761C0899481E5E
:1057C00008900029F5DC08E00A980A990078491C3D
:1057D0000A91DDE90F129047761CBBF10001ABF195
:1057E000010BF1DC21465046DDE90F2300F020F8E3
:1057F00006446D1C287800287FF41DAE11B0304699
:10580000BDE8F08F092801003031323334353637A6
:1058100038396162636465660000000030313233FC
:10582000343536373839414243444546000000009C
:105830002DE9F041044600251E461746880405D48C
:1058400006E039462020B04705F10105641EF8D571
:105850002846BDE8F0812DE9F041044600251E46AA
:105860009046C80301D5302700E02027880405D5DD
:1058700006E041463846B04705F10105641EF8D5FB
:105880002846BDE8F08100002DE9F05F5FEA010BDA
:1058900005464FF0000473D0DFF8E8804FF00109AF
:1058A00008F24D4A0027384E68E0307830B10128C0
:1058B0000BD002280ED0032822D05EE0285D0D28F0
:1058C0005BD186F80090777057E0285D0A2854D1A4
:1058D000022010E0F168285D08F8010001F10101E3
:1058E0000D28F16005D0285D3E2846D1012901D060
:1058F00043E011B1032030703FE086F800903CE0B7
:10590000285D0A2802D0202816D036E0F16808F871
:105910000100491CF160707838B91A4800F0C6F8E7
:1059200010B186F80190D3E7F16808EB010000F8A8
:10593000027C0DE0B7601EE098F8001040463E295A
:105940001BD1F168012918D12021417088F802701B
:105950000C48FAF757FC421CB068C0EB001000EB93
:1059600080010AEBC1000749FAF7FEFBB068401C52
:10597000B0601428DEDAF7603770641C5C4594DB95
:10598000BDE8F09F54470020800500202DE9F0413C
:1059900000240D460746022902DC0120BDE8F08103
:1059A000681CFDF79DFB06462A463946FDF7A2FB1B
:1059B000B61C1B4FAD1E57F82400FAF723FCC2B2E9
:1059C000954205DB57F824103046FDF79AFB10B1DD
:1059D000641C7F2CEFDB322C1AD9A4F13300202871
:1059E00001D8022415E0A4F15400162816D917385E
:1059F0000F2801D804240CE07B3C032C01D805249B
:105A000007E0701910F8030C1A2807D01B2805D0DE
:105A10000124B01EFDF700FB2046BFE70324F8E792
:105A20003402002005490A68054B00EB80001A602B
:105A30000B689B1AB3EB400FFAD3704708000020A5
:105A40000C00002004490A885206FCD5024AC1B263
:105A5000121D118070470000004C004010B5002856
:105A600021D0114B001F0022196803E0814203D8A6
:105A70000A4649680029F9D152B11368841A9C4238
:105A800004D1006818441060104602E0506000E045
:105A9000186039B102680B1A934203D10B681A449B
:105AA00002604968416010BDAC05002070B5084D2A
:105AB00006460024304655F8241000F0BAF808B124
:105AC000012070BD641C032CF4D3002070BD0000C5
:105AD00094050020FEF73EF8FEF74AFCFDF7A2FA17
